{
  "contractName": "ERC1155",
  "abi": [
    {
      "anonymous": false,
      "inputs": [
        {
          "indexed": true,
          "internalType": "address",
          "name": "account",
          "type": "address"
        },
        {
          "indexed": true,
          "internalType": "address",
          "name": "operator",
          "type": "address"
        },
        {
          "indexed": false,
          "internalType": "bool",
          "name": "approved",
          "type": "bool"
        }
      ],
      "name": "ApprovalForAll",
      "type": "event"
    },
    {
      "anonymous": false,
      "inputs": [
        {
          "indexed": true,
          "internalType": "address",
          "name": "operator",
          "type": "address"
        },
        {
          "indexed": true,
          "internalType": "address",
          "name": "from",
          "type": "address"
        },
        {
          "indexed": true,
          "internalType": "address",
          "name": "to",
          "type": "address"
        },
        {
          "indexed": false,
          "internalType": "uint256[]",
          "name": "ids",
          "type": "uint256[]"
        },
        {
          "indexed": false,
          "internalType": "uint256[]",
          "name": "values",
          "type": "uint256[]"
        }
      ],
      "name": "TransferBatch",
      "type": "event"
    },
    {
      "anonymous": false,
      "inputs": [
        {
          "indexed": true,
          "internalType": "address",
          "name": "operator",
          "type": "address"
        },
        {
          "indexed": true,
          "internalType": "address",
          "name": "from",
          "type": "address"
        },
        {
          "indexed": true,
          "internalType": "address",
          "name": "to",
          "type": "address"
        },
        {
          "indexed": false,
          "internalType": "uint256",
          "name": "id",
          "type": "uint256"
        },
        {
          "indexed": false,
          "internalType": "uint256",
          "name": "value",
          "type": "uint256"
        }
      ],
      "name": "TransferSingle",
      "type": "event"
    },
    {
      "anonymous": false,
      "inputs": [
        {
          "indexed": false,
          "internalType": "string",
          "name": "value",
          "type": "string"
        },
        {
          "indexed": true,
          "internalType": "uint256",
          "name": "id",
          "type": "uint256"
        }
      ],
      "name": "URI",
      "type": "event"
    },
    {
      "inputs": [],
      "name": "ERC1155_BATCH_RECEIVED",
      "outputs": [
        {
          "internalType": "bytes4",
          "name": "",
          "type": "bytes4"
        }
      ],
      "stateMutability": "view",
      "type": "function"
    },
    {
      "inputs": [],
      "name": "ERC1155_RECEIVED",
      "outputs": [
        {
          "internalType": "bytes4",
          "name": "",
          "type": "bytes4"
        }
      ],
      "stateMutability": "view",
      "type": "function"
    },
    {
      "inputs": [
        {
          "internalType": "bytes4",
          "name": "_interfaceId",
          "type": "bytes4"
        }
      ],
      "name": "supportsInterface",
      "outputs": [
        {
          "internalType": "bool",
          "name": "",
          "type": "bool"
        }
      ],
      "stateMutability": "pure",
      "type": "function"
    },
    {
      "inputs": [
        {
          "internalType": "address",
          "name": "_from",
          "type": "address"
        },
        {
          "internalType": "address",
          "name": "_to",
          "type": "address"
        },
        {
          "internalType": "uint256",
          "name": "_id",
          "type": "uint256"
        },
        {
          "internalType": "uint256",
          "name": "_value",
          "type": "uint256"
        },
        {
          "internalType": "bytes",
          "name": "_data",
          "type": "bytes"
        }
      ],
      "name": "safeTransferFrom",
      "outputs": [],
      "stateMutability": "nonpayable",
      "type": "function"
    },
    {
      "inputs": [
        {
          "internalType": "address",
          "name": "_from",
          "type": "address"
        },
        {
          "internalType": "address",
          "name": "_to",
          "type": "address"
        },
        {
          "internalType": "uint256[]",
          "name": "_ids",
          "type": "uint256[]"
        },
        {
          "internalType": "uint256[]",
          "name": "_values",
          "type": "uint256[]"
        },
        {
          "internalType": "bytes",
          "name": "_data",
          "type": "bytes"
        }
      ],
      "name": "safeBatchTransferFrom",
      "outputs": [],
      "stateMutability": "nonpayable",
      "type": "function"
    },
    {
      "inputs": [
        {
          "internalType": "address",
          "name": "_owner",
          "type": "address"
        },
        {
          "internalType": "uint256",
          "name": "_id",
          "type": "uint256"
        }
      ],
      "name": "balanceOf",
      "outputs": [
        {
          "internalType": "uint256",
          "name": "",
          "type": "uint256"
        }
      ],
      "stateMutability": "view",
      "type": "function"
    },
    {
      "inputs": [
        {
          "internalType": "address[]",
          "name": "_owners",
          "type": "address[]"
        },
        {
          "internalType": "uint256[]",
          "name": "_ids",
          "type": "uint256[]"
        }
      ],
      "name": "balanceOfBatch",
      "outputs": [
        {
          "internalType": "uint256[]",
          "name": "",
          "type": "uint256[]"
        }
      ],
      "stateMutability": "view",
      "type": "function"
    },
    {
      "inputs": [
        {
          "internalType": "address",
          "name": "_operator",
          "type": "address"
        },
        {
          "internalType": "bool",
          "name": "_approved",
          "type": "bool"
        }
      ],
      "name": "setApprovalForAll",
      "outputs": [],
      "stateMutability": "nonpayable",
      "type": "function"
    },
    {
      "inputs": [
        {
          "internalType": "address",
          "name": "_owner",
          "type": "address"
        },
        {
          "internalType": "address",
          "name": "_operator",
          "type": "address"
        }
      ],
      "name": "isApprovedForAll",
      "outputs": [
        {
          "internalType": "bool",
          "name": "",
          "type": "bool"
        }
      ],
      "stateMutability": "view",
      "type": "function"
    }
  ],
  "bytecode": "0x608060405234801561001057600080fd5b50611cd8806100206000396000f3fe608060405234801561001057600080fd5b50600436106100925760003560e01c8063a22cb46511610066578063a22cb46514610143578063e0a5c9491461015f578063e985e9c51461017d578063f242432a146101ad578063fc67bf1c146101c957610092565b8062fdd58e1461009757806301ffc9a7146100c75780632eb2c2d6146100f75780634e1273f414610113575b600080fd5b6100b160048036038101906100ac9190611049565b6101e7565b6040516100be9190611098565b60405180910390f35b6100e160048036038101906100dc919061110b565b610241565b6040516100ee9190611153565b60405180910390f35b610111600480360381019061010c9190611229565b6102f2565b005b61012d6004803603810190610128919061135b565b61082a565b60405161013a919061149a565b60405180910390f35b61015d600480360381019061015891906114e8565b610969565b005b610167610a66565b6040516101749190611537565b60405180910390f35b61019760048036038101906101929190611552565b610a71565b6040516101a49190611153565b60405180910390f35b6101c760048036038101906101c29190611592565b610b05565b005b6101d1610f8d565b6040516101de9190611537565b60405180910390f35b600080600083815260200190815260200160002060008473ffffffffffffffffffffffffffffffffffffffff1673ffffffffffffffffffffffffffffffffffffffff16815260200190815260200160002054905092915050565b60006301ffc9a760e01b7bffffffffffffffffffffffffffffffffffffffffffffffffffffffff1916827bffffffffffffffffffffffffffffffffffffffffffffffffffffffff191614806102da575063d9b67a2660e01b7bffffffffffffffffffffffffffffffffffffffffffffffffffffffff1916827bffffffffffffffffffffffffffffffffffffffffffffffffffffffff1916145b156102e857600190506102ed565b600090505b919050565b600073ffffffffffffffffffffffffffffffffffffffff168773ffffffffffffffffffffffffffffffffffffffff1603610361576040517f08c379a0000000000000000000000000000000000000000000000000000000008152600401610358906116af565b60405180910390fd5b8383905086869050146103a9576040517f08c379a00000000000000000000000000000000000000000000000000000000081526004016103a090611741565b60405180910390fd5b3373ffffffffffffffffffffffffffffffffffffffff168873ffffffffffffffffffffffffffffffffffffffff161480610470575060011515600160008a73ffffffffffffffffffffffffffffffffffffffff1673ffffffffffffffffffffffffffffffffffffffff16815260200190815260200160002060003373ffffffffffffffffffffffffffffffffffffffff1673ffffffffffffffffffffffffffffffffffffffff16815260200190815260200160002060009054906101000a900460ff161515145b6104af576040517f08c379a00000000000000000000000000000000000000000000000000000000081526004016104a6906117d3565b60405180910390fd5b60005b868690508110156106685760008787838181106104d2576104d16117f3565b5b90506020020135905060008686848181106104f0576104ef6117f3565b5b9050602002013590508060008084815260200190815260200160002060008d73ffffffffffffffffffffffffffffffffffffffff1673ffffffffffffffffffffffffffffffffffffffff168152602001908152602001600020546105549190611851565b60008084815260200190815260200160002060008d73ffffffffffffffffffffffffffffffffffffffff1673ffffffffffffffffffffffffffffffffffffffff1681526020019081526020016000208190555060008083815260200190815260200160002060008b73ffffffffffffffffffffffffffffffffffffffff1673ffffffffffffffffffffffffffffffffffffffff16815260200190815260200160002054816106029190611885565b60008084815260200190815260200160002060008c73ffffffffffffffffffffffffffffffffffffffff1673ffffffffffffffffffffffffffffffffffffffff16815260200190815260200160002081905550505080610661906118b9565b90506104b2565b508673ffffffffffffffffffffffffffffffffffffffff168873ffffffffffffffffffffffffffffffffffffffff163373ffffffffffffffffffffffffffffffffffffffff167f4a39dc06d4c0dbc64b70af90fd698a233a518aa5d07e595d983b8c0526c8f7fb898989896040516106e3949392919061196b565b60405180910390a461070a8773ffffffffffffffffffffffffffffffffffffffff16610f98565b156108205763bc197c8160e01b7bffffffffffffffffffffffffffffffffffffffffffffffffffffffff19168773ffffffffffffffffffffffffffffffffffffffff1663bc197c81338b8a8a8a8a8a8a6040518963ffffffff1660e01b815260040161077d989796959493929190611a13565b6020604051808303816000875af115801561079c573d6000803e3d6000fd5b505050506040513d601f19601f820116820180604052508101906107c09190611a96565b7bffffffffffffffffffffffffffffffffffffffffffffffffffffffff19161461081f576040517f08c379a000000000000000000000000000000000000000000000000000000000815260040161081690611b35565b60405180910390fd5b5b5050505050505050565b606082829050858590501461083e57600080fd5b60008585905067ffffffffffffffff81111561085d5761085c611b55565b5b60405190808252806020026020018201604052801561088b5781602001602082028036833780820191505090505b50905060005b8686905081101561095c576000808686848181106108b2576108b16117f3565b5b90506020020135815260200190815260200160002060008888848181106108dc576108db6117f3565b5b90506020020160208101906108f19190611b84565b73ffffffffffffffffffffffffffffffffffffffff1673ffffffffffffffffffffffffffffffffffffffff1681526020019081526020016000205482828151811061093f5761093e6117f3565b5b60200260200101818152505080610955906118b9565b9050610891565b5080915050949350505050565b80600160003373ffffffffffffffffffffffffffffffffffffffff1673ffffffffffffffffffffffffffffffffffffffff16815260200190815260200160002060008473ffffffffffffffffffffffffffffffffffffffff1673ffffffffffffffffffffffffffffffffffffffff16815260200190815260200160002060006101000a81548160ff0219169083151502179055508173ffffffffffffffffffffffffffffffffffffffff163373ffffffffffffffffffffffffffffffffffffffff167f17307eab39ab6107e8899845ad3d59bd9653f200f220920489ca2b5937696c3183604051610a5a9190611153565b60405180910390a35050565b63f23a6e6160e01b81565b6000600160008473ffffffffffffffffffffffffffffffffffffffff1673ffffffffffffffffffffffffffffffffffffffff16815260200190815260200160002060008373ffffffffffffffffffffffffffffffffffffffff1673ffffffffffffffffffffffffffffffffffffffff16815260200190815260200160002060009054906101000a900460ff16905092915050565b600073ffffffffffffffffffffffffffffffffffffffff168573ffffffffffffffffffffffffffffffffffffffff1603610b74576040517f08c379a0000000000000000000000000000000000000000000000000000000008152600401610b6b90611bfd565b60405180910390fd5b3373ffffffffffffffffffffffffffffffffffffffff168673ffffffffffffffffffffffffffffffffffffffff161480610c3b575060011515600160008873ffffffffffffffffffffffffffffffffffffffff1673ffffffffffffffffffffffffffffffffffffffff16815260200190815260200160002060003373ffffffffffffffffffffffffffffffffffffffff1673ffffffffffffffffffffffffffffffffffffffff16815260200190815260200160002060009054906101000a900460ff161515145b610c7a576040517f08c379a0000000000000000000000000000000000000000000000000000000008152600401610c71906117d3565b60405180910390fd5b8260008086815260200190815260200160002060008873ffffffffffffffffffffffffffffffffffffffff1673ffffffffffffffffffffffffffffffffffffffff16815260200190815260200160002054610cd59190611851565b60008086815260200190815260200160002060008873ffffffffffffffffffffffffffffffffffffffff1673ffffffffffffffffffffffffffffffffffffffff1681526020019081526020016000208190555060008085815260200190815260200160002060008673ffffffffffffffffffffffffffffffffffffffff1673ffffffffffffffffffffffffffffffffffffffff1681526020019081526020016000205483610d839190611885565b60008086815260200190815260200160002060008773ffffffffffffffffffffffffffffffffffffffff1673ffffffffffffffffffffffffffffffffffffffff168152602001908152602001600020819055508473ffffffffffffffffffffffffffffffffffffffff168673ffffffffffffffffffffffffffffffffffffffff163373ffffffffffffffffffffffffffffffffffffffff167fc3d58168c5ae7397731d063d5bbf3d657854427343f4c083240f7aacaa2d0f628787604051610e4c929190611c1d565b60405180910390a4610e738573ffffffffffffffffffffffffffffffffffffffff16610f98565b15610f855763f23a6e6160e01b7bffffffffffffffffffffffffffffffffffffffffffffffffffffffff19168573ffffffffffffffffffffffffffffffffffffffff1663f23a6e613389888888886040518763ffffffff1660e01b8152600401610ee296959493929190611c46565b6020604051808303816000875af1158015610f01573d6000803e3d6000fd5b505050506040513d601f19601f82011682018060405250810190610f259190611a96565b7bffffffffffffffffffffffffffffffffffffffffffffffffffffffff191614610f84576040517f08c379a0000000000000000000000000000000000000000000000000000000008152600401610f7b90611b35565b60405180910390fd5b5b505050505050565b63bc197c8160e01b81565b600080823b905060008111915050919050565b600080fd5b600080fd5b600073ffffffffffffffffffffffffffffffffffffffff82169050919050565b6000610fe082610fb5565b9050919050565b610ff081610fd5565b8114610ffb57600080fd5b50565b60008135905061100d81610fe7565b92915050565b6000819050919050565b61102681611013565b811461103157600080fd5b50565b6000813590506110438161101d565b92915050565b600080604083850312156110605761105f610fab565b5b600061106e85828601610ffe565b925050602061107f85828601611034565b9150509250929050565b61109281611013565b82525050565b60006020820190506110ad6000830184611089565b92915050565b60007fffffffff0000000000000000000000000000000000000000000000000000000082169050919050565b6110e8816110b3565b81146110f357600080fd5b50565b600081359050611105816110df565b92915050565b60006020828403121561112157611120610fab565b5b600061112f848285016110f6565b91505092915050565b60008115159050919050565b61114d81611138565b82525050565b60006020820190506111686000830184611144565b92915050565b600080fd5b600080fd5b600080fd5b60008083601f8401126111935761119261116e565b5b8235905067ffffffffffffffff8111156111b0576111af611173565b5b6020830191508360208202830111156111cc576111cb611178565b5b9250929050565b60008083601f8401126111e9576111e861116e565b5b8235905067ffffffffffffffff81111561120657611205611173565b5b60208301915083600182028301111561122257611221611178565b5b9250929050565b60008060008060008060008060a0898b03121561124957611248610fab565b5b60006112578b828c01610ffe565b98505060206112688b828c01610ffe565b975050604089013567ffffffffffffffff81111561128957611288610fb0565b5b6112958b828c0161117d565b9650965050606089013567ffffffffffffffff8111156112b8576112b7610fb0565b5b6112c48b828c0161117d565b9450945050608089013567ffffffffffffffff8111156112e7576112e6610fb0565b5b6112f38b828c016111d3565b92509250509295985092959890939650565b60008083601f84011261131b5761131a61116e565b5b8235905067ffffffffffffffff81111561133857611337611173565b5b60208301915083602082028301111561135457611353611178565b5b9250929050565b6000806000806040858703121561137557611374610fab565b5b600085013567ffffffffffffffff81111561139357611392610fb0565b5b61139f87828801611305565b9450945050602085013567ffffffffffffffff8111156113c2576113c1610fb0565b5b6113ce8782880161117d565b925092505092959194509250565b600081519050919050565b600082825260208201905092915050565b6000819050602082019050919050565b61141181611013565b82525050565b60006114238383611408565b60208301905092915050565b6000602082019050919050565b6000611447826113dc565b61145181856113e7565b935061145c836113f8565b8060005b8381101561148d5781516114748882611417565b975061147f8361142f565b925050600181019050611460565b5085935050505092915050565b600060208201905081810360008301526114b4818461143c565b905092915050565b6114c581611138565b81146114d057600080fd5b50565b6000813590506114e2816114bc565b92915050565b600080604083850312156114ff576114fe610fab565b5b600061150d85828601610ffe565b925050602061151e858286016114d3565b9150509250929050565b611531816110b3565b82525050565b600060208201905061154c6000830184611528565b92915050565b6000806040838503121561156957611568610fab565b5b600061157785828601610ffe565b925050602061158885828601610ffe565b9150509250929050565b60008060008060008060a087890312156115af576115ae610fab565b5b60006115bd89828a01610ffe565b96505060206115ce89828a01610ffe565b95505060406115df89828a01611034565b94505060606115f089828a01611034565b935050608087013567ffffffffffffffff81111561161157611610610fb0565b5b61161d89828a016111d3565b92509250509295509295509295565b600082825260208201905092915050565b7f64657374696e6174696f6e2061646472657373206d757374206265206e6f6e2d60008201527f7a65726f2e000000000000000000000000000000000000000000000000000000602082015250565b600061169960258361162c565b91506116a48261163d565b604082019050919050565b600060208201905081810360008301526116c88161168c565b9050919050565b7f5f69647320616e64205f76616c756573206172726179206c656e676874206d7560008201527f7374206d617463682e0000000000000000000000000000000000000000000000602082015250565b600061172b60298361162c565b9150611736826116cf565b604082019050919050565b6000602082019050818103600083015261175a8161171e565b9050919050565b7f4e656564206f70657261746f7220617070726f76616c20666f7220337264207060008201527f61727479207472616e73666572732e0000000000000000000000000000000000602082015250565b60006117bd602f8361162c565b91506117c882611761565b604082019050919050565b600060208201905081810360008301526117ec816117b0565b9050919050565b7f4e487b7100000000000000000000000000000000000000000000000000000000600052603260045260246000fd5b7f4e487b7100000000000000000000000000000000000000000000000000000000600052601160045260246000fd5b600061185c82611013565b915061186783611013565b925082820390508181111561187f5761187e611822565b5b92915050565b600061189082611013565b915061189b83611013565b92508282019050808211156118b3576118b2611822565b5b92915050565b60006118c482611013565b91507fffffffffffffffffffffffffffffffffffffffffffffffffffffffffffffffff82036118f6576118f5611822565b5b600182019050919050565b600080fd5b82818337505050565b600061191b83856113e7565b93507f07ffffffffffffffffffffffffffffffffffffffffffffffffffffffffffffff83111561194e5761194d611901565b5b60208302925061195f838584611906565b82840190509392505050565b6000604082019050818103600083015261198681868861190f565b9050818103602083015261199b81848661190f565b905095945050505050565b6119af81610fd5565b82525050565b600082825260208201905092915050565b82818337600083830152505050565b6000601f19601f8301169050919050565b60006119f283856119b5565b93506119ff8385846119c6565b611a08836119d5565b840190509392505050565b600060a082019050611a28600083018b6119a6565b611a35602083018a6119a6565b8181036040830152611a4881888a61190f565b90508181036060830152611a5d81868861190f565b90508181036080830152611a728184866119e6565b90509998505050505050505050565b600081519050611a90816110df565b92915050565b600060208284031215611aac57611aab610fab565b5b6000611aba84828501611a81565b91505092915050565b7f526563656976657220636f6e747261637420646964206e6f742061636365707460008201527f20746865207472616e736665722e000000000000000000000000000000000000602082015250565b6000611b1f602e8361162c565b9150611b2a82611ac3565b604082019050919050565b60006020820190508181036000830152611b4e81611b12565b9050919050565b7f4e487b7100000000000000000000000000000000000000000000000000000000600052604160045260246000fd5b600060208284031215611b9a57611b99610fab565b5b6000611ba884828501610ffe565b91505092915050565b7f5f746f206d757374206265206e6f6e2d7a65726f2e0000000000000000000000600082015250565b6000611be760158361162c565b9150611bf282611bb1565b602082019050919050565b60006020820190508181036000830152611c1681611bda565b9050919050565b6000604082019050611c326000830185611089565b611c3f6020830184611089565b9392505050565b600060a082019050611c5b60008301896119a6565b611c6860208301886119a6565b611c756040830187611089565b611c826060830186611089565b8181036080830152611c958184866119e6565b905097965050505050505056fea264697066735822122062234e939d2785104b367356d8d9ae0e10a086106d478e2e9550ce2b0640142064736f6c63430008110033",
  "immutableReferences": {},
  "source": "pragma solidity ^0.8.17;\r\n\r\nimport \"./Address.sol\";\r\nimport \"./IERC1155TokenReceiver.sol\";\r\nimport \"./IERC1155.sol\";\r\n\r\n// A sample implementation of core ERC1155 function.\r\ncontract ERC1155 is ERC165, IERC1155\r\n{\r\n    using Address for address;\r\n\r\n    bytes4 constant public ERC1155_RECEIVED       = 0xf23a6e61;\r\n    bytes4 constant public ERC1155_BATCH_RECEIVED = 0xbc197c81;\r\n\r\n    // id => (owner => balance)\r\n    mapping (uint256 => mapping(address => uint256)) internal balances;\r\n\r\n    // owner => (operator => approved)\r\n    mapping (address => mapping(address => bool)) internal operatorApproval;\r\n\r\n/////////////////////////////////////////// ERC165 //////////////////////////////////////////////\r\n\r\n    /*\r\n        bytes4(keccak256('supportsInterface(bytes4)'));\r\n    */\r\n    bytes4 constant private INTERFACE_SIGNATURE_ERC165 = 0x01ffc9a7;\r\n\r\n    /*\r\n        bytes4(keccak256(\"safeTransferFrom(address,address,uint256,uint256,bytes)\")) ^\r\n        bytes4(keccak256(\"safeBatchTransferFrom(address,address,uint256[],uint256[],bytes)\")) ^\r\n        bytes4(keccak256(\"balanceOf(address,uint256)\")) ^\r\n        bytes4(keccak256(\"balanceOfBatch(address[],uint256[])\")) ^\r\n        bytes4(keccak256(\"setApprovalForAll(address,bool)\")) ^\r\n        bytes4(keccak256(\"isApprovedForAll(address,address)\"));\r\n    */\r\n    bytes4 constant private INTERFACE_SIGNATURE_ERC1155 = 0xd9b67a26;\r\n\r\n    function supportsInterface(bytes4 _interfaceId)\r\n    public\r\n    virtual\r\n    pure\r\n    returns (bool) {\r\n         if (_interfaceId == INTERFACE_SIGNATURE_ERC165 ||\r\n             _interfaceId == INTERFACE_SIGNATURE_ERC1155) {\r\n            return true;\r\n         }\r\n\r\n         return false;\r\n    }\r\n\r\n/////////////////////////////////////////// ERC1155 //////////////////////////////////////////////\r\n\r\n    /**\r\n        @notice Transfers value amount of an _id from the _from address to the _to addresses specified. Each parameter array should be the same length, with each index correlating.\r\n        @dev MUST emit TransferSingle event on success.\r\n        Caller must be approved to manage the _from account's tokens (see isApprovedForAll).\r\n        MUST Throw if `_to` is the zero address.\r\n        MUST Throw if `_id` is not a valid token ID.\r\n        MUST Throw on any other error.\r\n        When transfer is complete, this function MUST check if `_to` is a smart contract (code size > 0). If so, it MUST call `onERC1155Received` on `_to` and revert if the return value is not `bytes4(keccak256(\"onERC1155Received(address,address,uint256,uint256,bytes)\"))`.\r\n        @param _from    Source addresses\r\n        @param _to      Target addresses\r\n        @param _id      ID of the token type\r\n        @param _value   Transfer amount\r\n        @param _data    Additional data with no specified format, sent in call to `_to`\r\n    */\r\n    function safeTransferFrom(address _from, address _to, uint256 _id, uint256 _value, bytes calldata _data) external {\r\n\r\n        require(_to != address(0x0), \"_to must be non-zero.\");\r\n        require(_from == msg.sender || operatorApproval[_from][msg.sender] == true, \"Need operator approval for 3rd party transfers.\");\r\n\r\n        // SafeMath will throw with insuficient funds _from\r\n        // or if _id is not valid (balance will be 0)\r\n        balances[_id][_from] = balances[_id][_from] - (_value);\r\n        balances[_id][_to]   = _value + (balances[_id][_to]);\r\n\r\n        emit TransferSingle(msg.sender, _from, _to, _id, _value);\r\n\r\n        if (_to.isContract()) {\r\n            require(IERC1155TokenReceiver(_to).onERC1155Received(msg.sender, _from, _id, _value, _data) == ERC1155_RECEIVED, \"Receiver contract did not accept the transfer.\");\r\n        }\r\n    }\r\n\r\n    /**\r\n        @notice Send multiple types of Tokens from a 3rd party in one transfer (with safety call).\r\n        @dev MUST emit TransferBatch event on success.\r\n        Caller must be approved to manage the _from account's tokens (see isApprovedForAll).\r\n        MUST Throw if `_to` is the zero address.\r\n        MUST Throw if any of the `_ids` is not a valid token ID.\r\n        MUST Throw on any other error.\r\n        When transfer is complete, this function MUST check if `_to` is a smart contract (code size > 0). If so, it MUST call `onERC1155BatchReceived` on `_to` and revert if the return value is not `bytes4(keccak256(\"onERC1155BatchReceived(address,address,uint256[],uint256[],bytes)\"))`.\r\n        @param _from    Source address\r\n        @param _to      Target address\r\n        @param _ids     IDs of each token type\r\n        @param _values  Transfer amounts per token type\r\n        @param _data    Additional data with no specified format, sent in call to `_to`\r\n    */\r\n    function safeBatchTransferFrom(address _from, address _to, uint256[] calldata _ids, uint256[] calldata _values, bytes calldata _data) external {\r\n\r\n        // MUST Throw on errors\r\n        require(_to != address(0x0), \"destination address must be non-zero.\");\r\n        require(_ids.length == _values.length, \"_ids and _values array lenght must match.\");\r\n        require(_from == msg.sender || operatorApproval[_from][msg.sender] == true, \"Need operator approval for 3rd party transfers.\");\r\n\r\n        for (uint256 i = 0; i < _ids.length; ++i) {\r\n            uint256 id = _ids[i];\r\n            uint256 value = _values[i];\r\n\r\n            // SafeMath will throw with insuficient funds _from\r\n            // or if _id is not valid (balance will be 0)\r\n            balances[id][_from] = balances[id][_from] - (value);\r\n            balances[id][_to]   = value + (balances[id][_to]);\r\n        }\r\n\r\n        // MUST emit event\r\n        emit TransferBatch(msg.sender, _from, _to, _ids, _values);\r\n\r\n        // Now that the balances are updated,\r\n        // call onERC1155BatchReceived if the destination is a contract\r\n        if (_to.isContract()) {\r\n            require(IERC1155TokenReceiver(_to).onERC1155BatchReceived(msg.sender, _from, _ids, _values, _data) == ERC1155_BATCH_RECEIVED, \"Receiver contract did not accept the transfer.\");\r\n        }\r\n    }\r\n\r\n    /**\r\n        @notice Get the balance of an account's Tokens.\r\n        @param _owner  The address of the token holder\r\n        @param _id     ID of the Token\r\n        @return        The _owner's balance of the Token type requested\r\n     */\r\n    function balanceOf(address _owner, uint256 _id) external view returns (uint256) {\r\n        // The balance of any account can be calculated from the Transfer events history.\r\n        // However, since we need to keep the balances to validate transfer request,\r\n        // there is no extra cost to also privide a querry function.\r\n        return balances[_id][_owner];\r\n    }\r\n\r\n\r\n    /**\r\n        @notice Get the balance of multiple account/token pairs\r\n        @param _owners The addresses of the token holders\r\n        @param _ids    ID of the Tokens\r\n        @return        The _owner's balance of the Token types requested\r\n     */\r\n    function balanceOfBatch(address[] calldata _owners, uint256[] calldata _ids) external view returns (uint256[] memory) {\r\n\r\n        require(_owners.length == _ids.length);\r\n\r\n        uint256[] memory balances_ = new uint256[](_owners.length);\r\n\r\n        for (uint256 i = 0; i < _owners.length; ++i) {\r\n            balances_[i] = balances[_ids[i]][_owners[i]];\r\n        }\r\n\r\n        return balances_;\r\n    }\r\n\r\n    /**\r\n        @notice Enable or disable approval for a third party (\"operator\") to manage all of the caller's tokens.\r\n        @dev MUST emit the ApprovalForAll event on success.\r\n        @param _operator  Address to add to the set of authorized operators\r\n        @param _approved  True if the operator is approved, false to revoke approval\r\n    */\r\n    function setApprovalForAll(address _operator, bool _approved) external {\r\n        operatorApproval[msg.sender][_operator] = _approved;\r\n        emit ApprovalForAll(msg.sender, _operator, _approved);\r\n    }\r\n\r\n    /**\r\n        @notice Queries the approval status of an operator for a given owner.\r\n        @param _owner     The owner of the Tokens\r\n        @param _operator  Address of authorized operator\r\n        @return           True if the operator is approved, false if not\r\n    */\r\n    function isApprovedForAll(address _owner, address _operator) external view returns (bool) {\r\n        return operatorApproval[_owner][_operator];\r\n    }\r\n}",
  "sourcePath": "C:\\Users\\HP Elitebook\\Downloads\\web3 project\\contracts\\ERC1155.sol",
  "compiler": {
    "name": "solc",
    "version": "0.8.17+commit.8df45f5f.Emscripten.clang"
  },
  "schemaVersion": "3.4.3",
  "updatedAt": "2022-11-24T14:27:37.782Z",
  "devdoc": {
    "kind": "dev",
    "methods": {
      "balanceOf(address,uint256)": {
        "params": {
          "_id": "ID of the Token",
          "_owner": "The address of the token holder"
        },
        "returns": {
          "_0": "The _owner's balance of the Token type requested"
        }
      },
      "balanceOfBatch(address[],uint256[])": {
        "params": {
          "_ids": "ID of the Tokens",
          "_owners": "The addresses of the token holders"
        },
        "returns": {
          "_0": "The _owner's balance of the Token types requested"
        }
      },
      "isApprovedForAll(address,address)": {
        "params": {
          "_operator": "Address of authorized operator",
          "_owner": "The owner of the Tokens"
        },
        "returns": {
          "_0": "True if the operator is approved, false if not"
        }
      },
      "safeBatchTransferFrom(address,address,uint256[],uint256[],bytes)": {
        "details": "MUST emit TransferBatch event on success. Caller must be approved to manage the _from account's tokens (see isApprovedForAll). MUST Throw if `_to` is the zero address. MUST Throw if any of the `_ids` is not a valid token ID. MUST Throw on any other error. When transfer is complete, this function MUST check if `_to` is a smart contract (code size > 0). If so, it MUST call `onERC1155BatchReceived` on `_to` and revert if the return value is not `bytes4(keccak256(\"onERC1155BatchReceived(address,address,uint256[],uint256[],bytes)\"))`.",
        "params": {
          "_data": "Additional data with no specified format, sent in call to `_to`",
          "_from": "Source address",
          "_ids": "IDs of each token type",
          "_to": "Target address",
          "_values": "Transfer amounts per token type"
        }
      },
      "safeTransferFrom(address,address,uint256,uint256,bytes)": {
        "details": "MUST emit TransferSingle event on success. Caller must be approved to manage the _from account's tokens (see isApprovedForAll). MUST Throw if `_to` is the zero address. MUST Throw if `_id` is not a valid token ID. MUST Throw on any other error. When transfer is complete, this function MUST check if `_to` is a smart contract (code size > 0). If so, it MUST call `onERC1155Received` on `_to` and revert if the return value is not `bytes4(keccak256(\"onERC1155Received(address,address,uint256,uint256,bytes)\"))`.",
        "params": {
          "_data": "Additional data with no specified format, sent in call to `_to`",
          "_from": "Source addresses",
          "_id": "ID of the token type",
          "_to": "Target addresses",
          "_value": "Transfer amount"
        }
      },
      "setApprovalForAll(address,bool)": {
        "details": "MUST emit the ApprovalForAll event on success.",
        "params": {
          "_approved": "True if the operator is approved, false to revoke approval",
          "_operator": "Address to add to the set of authorized operators"
        }
      },
      "supportsInterface(bytes4)": {
        "details": "Interface identification is specified in ERC-165. This function uses less than 30,000 gas.",
        "params": {
          "_interfaceId": "The interface identifier, as specified in ERC-165"
        }
      }
    },
    "version": 1
  },
  "userdoc": {
    "kind": "user",
    "methods": {
      "balanceOf(address,uint256)": {
        "notice": "Get the balance of an account's Tokens."
      },
      "balanceOfBatch(address[],uint256[])": {
        "notice": "Get the balance of multiple account/token pairs"
      },
      "isApprovedForAll(address,address)": {
        "notice": "Queries the approval status of an operator for a given owner."
      },
      "safeBatchTransferFrom(address,address,uint256[],uint256[],bytes)": {
        "notice": "Send multiple types of Tokens from a 3rd party in one transfer (with safety call)."
      },
      "safeTransferFrom(address,address,uint256,uint256,bytes)": {
        "notice": "Transfers value amount of an _id from the _from address to the _to addresses specified. Each parameter array should be the same length, with each index correlating."
      },
      "setApprovalForAll(address,bool)": {
        "notice": "Enable or disable approval for a third party (\"operator\") to manage all of the caller's tokens."
      },
      "supportsInterface(bytes4)": {
        "notice": "Query if a contract implements an interface"
      }
    },
    "version": 1
  }
}