{
  "contractName": "token",
  "abi": [
    {
      "inputs": [],
      "stateMutability": "nonpayable",
      "type": "constructor"
    },
    {
      "anonymous": false,
      "inputs": [
        {
          "indexed": true,
          "internalType": "address",
          "name": "account",
          "type": "address"
        },
        {
          "indexed": true,
          "internalType": "address",
          "name": "operator",
          "type": "address"
        },
        {
          "indexed": false,
          "internalType": "bool",
          "name": "approved",
          "type": "bool"
        }
      ],
      "name": "ApprovalForAll",
      "type": "event"
    },
    {
      "anonymous": false,
      "inputs": [
        {
          "indexed": true,
          "internalType": "address",
          "name": "operator",
          "type": "address"
        },
        {
          "indexed": true,
          "internalType": "address",
          "name": "from",
          "type": "address"
        },
        {
          "indexed": true,
          "internalType": "address",
          "name": "to",
          "type": "address"
        },
        {
          "indexed": false,
          "internalType": "uint256[]",
          "name": "ids",
          "type": "uint256[]"
        },
        {
          "indexed": false,
          "internalType": "uint256[]",
          "name": "values",
          "type": "uint256[]"
        }
      ],
      "name": "TransferBatch",
      "type": "event"
    },
    {
      "anonymous": false,
      "inputs": [
        {
          "indexed": true,
          "internalType": "address",
          "name": "operator",
          "type": "address"
        },
        {
          "indexed": true,
          "internalType": "address",
          "name": "from",
          "type": "address"
        },
        {
          "indexed": true,
          "internalType": "address",
          "name": "to",
          "type": "address"
        },
        {
          "indexed": false,
          "internalType": "uint256",
          "name": "id",
          "type": "uint256"
        },
        {
          "indexed": false,
          "internalType": "uint256",
          "name": "value",
          "type": "uint256"
        }
      ],
      "name": "TransferSingle",
      "type": "event"
    },
    {
      "anonymous": false,
      "inputs": [
        {
          "indexed": false,
          "internalType": "string",
          "name": "value",
          "type": "string"
        },
        {
          "indexed": true,
          "internalType": "uint256",
          "name": "id",
          "type": "uint256"
        }
      ],
      "name": "URI",
      "type": "event"
    },
    {
      "inputs": [],
      "name": "ERC1155_BATCH_RECEIVED",
      "outputs": [
        {
          "internalType": "bytes4",
          "name": "",
          "type": "bytes4"
        }
      ],
      "stateMutability": "view",
      "type": "function",
      "constant": true
    },
    {
      "inputs": [],
      "name": "ERC1155_RECEIVED",
      "outputs": [
        {
          "internalType": "bytes4",
          "name": "",
          "type": "bytes4"
        }
      ],
      "stateMutability": "view",
      "type": "function",
      "constant": true
    },
    {
      "inputs": [
        {
          "internalType": "address",
          "name": "_owner",
          "type": "address"
        },
        {
          "internalType": "uint256",
          "name": "_id",
          "type": "uint256"
        }
      ],
      "name": "balanceOf",
      "outputs": [
        {
          "internalType": "uint256",
          "name": "",
          "type": "uint256"
        }
      ],
      "stateMutability": "view",
      "type": "function",
      "constant": true
    },
    {
      "inputs": [
        {
          "internalType": "address[]",
          "name": "_owners",
          "type": "address[]"
        },
        {
          "internalType": "uint256[]",
          "name": "_ids",
          "type": "uint256[]"
        }
      ],
      "name": "balanceOfBatch",
      "outputs": [
        {
          "internalType": "uint256[]",
          "name": "",
          "type": "uint256[]"
        }
      ],
      "stateMutability": "view",
      "type": "function",
      "constant": true
    },
    {
      "inputs": [
        {
          "internalType": "uint256",
          "name": "_initialSupply",
          "type": "uint256"
        },
        {
          "internalType": "string",
          "name": "_uri",
          "type": "string"
        }
      ],
      "name": "create",
      "outputs": [
        {
          "internalType": "uint256",
          "name": "_id",
          "type": "uint256"
        }
      ],
      "stateMutability": "nonpayable",
      "type": "function"
    },
    {
      "inputs": [
        {
          "internalType": "uint256",
          "name": "",
          "type": "uint256"
        }
      ],
      "name": "creators",
      "outputs": [
        {
          "internalType": "address",
          "name": "",
          "type": "address"
        }
      ],
      "stateMutability": "view",
      "type": "function",
      "constant": true
    },
    {
      "inputs": [
        {
          "internalType": "address",
          "name": "_owner",
          "type": "address"
        },
        {
          "internalType": "address",
          "name": "_operator",
          "type": "address"
        }
      ],
      "name": "isApprovedForAll",
      "outputs": [
        {
          "internalType": "bool",
          "name": "",
          "type": "bool"
        }
      ],
      "stateMutability": "view",
      "type": "function",
      "constant": true
    },
    {
      "inputs": [
        {
          "internalType": "uint256",
          "name": "_id",
          "type": "uint256"
        },
        {
          "internalType": "address[]",
          "name": "_to",
          "type": "address[]"
        },
        {
          "internalType": "uint256[]",
          "name": "_quantities",
          "type": "uint256[]"
        }
      ],
      "name": "mint",
      "outputs": [],
      "stateMutability": "nonpayable",
      "type": "function"
    },
    {
      "inputs": [],
      "name": "nonce",
      "outputs": [
        {
          "internalType": "uint256",
          "name": "",
          "type": "uint256"
        }
      ],
      "stateMutability": "view",
      "type": "function",
      "constant": true
    },
    {
      "inputs": [
        {
          "internalType": "address",
          "name": "_from",
          "type": "address"
        },
        {
          "internalType": "address",
          "name": "_to",
          "type": "address"
        },
        {
          "internalType": "uint256[]",
          "name": "_ids",
          "type": "uint256[]"
        },
        {
          "internalType": "uint256[]",
          "name": "_values",
          "type": "uint256[]"
        },
        {
          "internalType": "bytes",
          "name": "_data",
          "type": "bytes"
        }
      ],
      "name": "safeBatchTransferFrom",
      "outputs": [],
      "stateMutability": "nonpayable",
      "type": "function"
    },
    {
      "inputs": [
        {
          "internalType": "address",
          "name": "_from",
          "type": "address"
        },
        {
          "internalType": "address",
          "name": "_to",
          "type": "address"
        },
        {
          "internalType": "uint256",
          "name": "_id",
          "type": "uint256"
        },
        {
          "internalType": "uint256",
          "name": "_value",
          "type": "uint256"
        },
        {
          "internalType": "bytes",
          "name": "_data",
          "type": "bytes"
        }
      ],
      "name": "safeTransferFrom",
      "outputs": [],
      "stateMutability": "nonpayable",
      "type": "function"
    },
    {
      "inputs": [
        {
          "internalType": "address",
          "name": "_operator",
          "type": "address"
        },
        {
          "internalType": "bool",
          "name": "_approved",
          "type": "bool"
        }
      ],
      "name": "setApprovalForAll",
      "outputs": [],
      "stateMutability": "nonpayable",
      "type": "function"
    },
    {
      "inputs": [
        {
          "internalType": "string",
          "name": "_uri",
          "type": "string"
        },
        {
          "internalType": "uint256",
          "name": "_id",
          "type": "uint256"
        }
      ],
      "name": "setURI",
      "outputs": [],
      "stateMutability": "nonpayable",
      "type": "function"
    },
    {
      "inputs": [
        {
          "internalType": "bytes4",
          "name": "interfaceId",
          "type": "bytes4"
        }
      ],
      "name": "supportsInterface",
      "outputs": [
        {
          "internalType": "bool",
          "name": "",
          "type": "bool"
        }
      ],
      "stateMutability": "pure",
      "type": "function",
      "constant": true
    }
  ],
  "bytecode": "0x608060405234801561001057600080fd5b506124a2806100206000396000f3fe608060405234801561001057600080fd5b50600436106100e95760003560e01c8063affed0e01161008c578063e0a5c94911610066578063e0a5c9491461026c578063e985e9c51461028a578063f242432a146102ba578063fc67bf1c146102d6576100e9565b8063affed0e014610202578063cd53d08e14610220578063cfa84fc114610250576100e9565b80632eb2c2d6116100c85780632eb2c2d61461017e5780634e1273f41461019a57806367db3b8f146101ca578063a22cb465146101e6576100e9565b8062fdd58e146100ee5780630118fa491461011e57806301ffc9a71461014e575b600080fd5b610108600480360381019061010391906115cf565b6102f4565b604051610115919061161e565b60405180910390f35b6101386004803603810190610133919061169e565b61034e565b604051610145919061161e565b60405180910390f35b61016860048036038101906101639190611756565b6104da565b604051610175919061179e565b60405180910390f35b61019860048036038101906101939190611865565b6104ec565b005b6101b460048036038101906101af9190611997565b610a24565b6040516101c19190611ad6565b60405180910390f35b6101e460048036038101906101df9190611af8565b610b63565b005b61020060048036038101906101fb9190611b84565b610c0f565b005b61020a610d0c565b604051610217919061161e565b60405180910390f35b61023a60048036038101906102359190611bc4565b610d12565b6040516102479190611c00565b60405180910390f35b61026a60048036038101906102659190611c1b565b610d45565b005b610274610ed3565b6040516102819190611cbf565b60405180910390f35b6102a4600480360381019061029f9190611cda565b610ede565b6040516102b1919061179e565b60405180910390f35b6102d460048036038101906102cf9190611d1a565b610f72565b005b6102de6113fa565b6040516102eb9190611cbf565b60405180910390f35b600080600083815260200190815260200160002060008473ffffffffffffffffffffffffffffffffffffffff1673ffffffffffffffffffffffffffffffffffffffff16815260200190815260200160002054905092915050565b600060036000815461035f90611de3565b9190508190559050336002600083815260200190815260200160002060006101000a81548173ffffffffffffffffffffffffffffffffffffffff021916908373ffffffffffffffffffffffffffffffffffffffff1602179055508360008083815260200190815260200160002060003373ffffffffffffffffffffffffffffffffffffffff1673ffffffffffffffffffffffffffffffffffffffff168152602001908152602001600020819055503373ffffffffffffffffffffffffffffffffffffffff16600073ffffffffffffffffffffffffffffffffffffffff163373ffffffffffffffffffffffffffffffffffffffff167fc3d58168c5ae7397731d063d5bbf3d657854427343f4c083240f7aacaa2d0f628488604051610484929190611e2b565b60405180910390a460008383905011156104d357807f6bb7ff708619ba0610cba295a58592e0451dee2622938c8755667688daf3529b84846040516104ca929190611eb2565b60405180910390a25b9392505050565b60006104e582611405565b9050919050565b600073ffffffffffffffffffffffffffffffffffffffff168773ffffffffffffffffffffffffffffffffffffffff160361055b576040517f08c379a000000000000000000000000000000000000000000000000000000000815260040161055290611f48565b60405180910390fd5b8383905086869050146105a3576040517f08c379a000000000000000000000000000000000000000000000000000000000815260040161059a90611fda565b60405180910390fd5b3373ffffffffffffffffffffffffffffffffffffffff168873ffffffffffffffffffffffffffffffffffffffff16148061066a575060011515600160008a73ffffffffffffffffffffffffffffffffffffffff1673ffffffffffffffffffffffffffffffffffffffff16815260200190815260200160002060003373ffffffffffffffffffffffffffffffffffffffff1673ffffffffffffffffffffffffffffffffffffffff16815260200190815260200160002060009054906101000a900460ff161515145b6106a9576040517f08c379a00000000000000000000000000000000000000000000000000000000081526004016106a09061206c565b60405180910390fd5b60005b868690508110156108625760008787838181106106cc576106cb61208c565b5b90506020020135905060008686848181106106ea576106e961208c565b5b9050602002013590508060008084815260200190815260200160002060008d73ffffffffffffffffffffffffffffffffffffffff1673ffffffffffffffffffffffffffffffffffffffff1681526020019081526020016000205461074e91906120bb565b60008084815260200190815260200160002060008d73ffffffffffffffffffffffffffffffffffffffff1673ffffffffffffffffffffffffffffffffffffffff1681526020019081526020016000208190555060008083815260200190815260200160002060008b73ffffffffffffffffffffffffffffffffffffffff1673ffffffffffffffffffffffffffffffffffffffff16815260200190815260200160002054816107fc91906120ef565b60008084815260200190815260200160002060008c73ffffffffffffffffffffffffffffffffffffffff1673ffffffffffffffffffffffffffffffffffffffff1681526020019081526020016000208190555050508061085b90611de3565b90506106ac565b508673ffffffffffffffffffffffffffffffffffffffff168873ffffffffffffffffffffffffffffffffffffffff163373ffffffffffffffffffffffffffffffffffffffff167f4a39dc06d4c0dbc64b70af90fd698a233a518aa5d07e595d983b8c0526c8f7fb898989896040516108dd949392919061218d565b60405180910390a46109048773ffffffffffffffffffffffffffffffffffffffff1661146d565b15610a1a5763bc197c8160e01b7bffffffffffffffffffffffffffffffffffffffffffffffffffffffff19168773ffffffffffffffffffffffffffffffffffffffff1663bc197c81338b8a8a8a8a8a8a6040518963ffffffff1660e01b8152600401610977989796959493929190612206565b6020604051808303816000875af1158015610996573d6000803e3d6000fd5b505050506040513d601f19601f820116820180604052508101906109ba9190612289565b7bffffffffffffffffffffffffffffffffffffffffffffffffffffffff191614610a19576040517f08c379a0000000000000000000000000000000000000000000000000000000008152600401610a1090612328565b60405180910390fd5b5b5050505050505050565b6060828290508585905014610a3857600080fd5b60008585905067ffffffffffffffff811115610a5757610a56612348565b5b604051908082528060200260200182016040528015610a855781602001602082028036833780820191505090505b50905060005b86869050811015610b5657600080868684818110610aac57610aab61208c565b5b9050602002013581526020019081526020016000206000888884818110610ad657610ad561208c565b5b9050602002016020810190610aeb9190612377565b73ffffffffffffffffffffffffffffffffffffffff1673ffffffffffffffffffffffffffffffffffffffff16815260200190815260200160002054828281518110610b3957610b3861208c565b5b60200260200101818152505080610b4f90611de3565b9050610a8b565b5080915050949350505050565b803373ffffffffffffffffffffffffffffffffffffffff166002600083815260200190815260200160002060009054906101000a900473ffffffffffffffffffffffffffffffffffffffff1673ffffffffffffffffffffffffffffffffffffffff1614610bcf57600080fd5b817f6bb7ff708619ba0610cba295a58592e0451dee2622938c8755667688daf3529b8585604051610c01929190611eb2565b60405180910390a250505050565b80600160003373ffffffffffffffffffffffffffffffffffffffff1673ffffffffffffffffffffffffffffffffffffffff16815260200190815260200160002060008473ffffffffffffffffffffffffffffffffffffffff1673ffffffffffffffffffffffffffffffffffffffff16815260200190815260200160002060006101000a81548160ff0219169083151502179055508173ffffffffffffffffffffffffffffffffffffffff163373ffffffffffffffffffffffffffffffffffffffff167f17307eab39ab6107e8899845ad3d59bd9653f200f220920489ca2b5937696c3183604051610d00919061179e565b60405180910390a35050565b60035481565b60026020528060005260406000206000915054906101000a900473ffffffffffffffffffffffffffffffffffffffff1681565b843373ffffffffffffffffffffffffffffffffffffffff166002600083815260200190815260200160002060009054906101000a900473ffffffffffffffffffffffffffffffffffffffff1673ffffffffffffffffffffffffffffffffffffffff1614610db157600080fd5b60005b85859050811015610eca576000868683818110610dd457610dd361208c565b5b9050602002016020810190610de99190612377565b90506000858584818110610e0057610dff61208c565b5b9050602002013590506000808a815260200190815260200160002060008373ffffffffffffffffffffffffffffffffffffffff1673ffffffffffffffffffffffffffffffffffffffff1681526020019081526020016000205481610e6491906120ef565b6000808b815260200190815260200160002060008473ffffffffffffffffffffffffffffffffffffffff1673ffffffffffffffffffffffffffffffffffffffff16815260200190815260200160002081905550505080610ec390611de3565b9050610db4565b50505050505050565b63f23a6e6160e01b81565b6000600160008473ffffffffffffffffffffffffffffffffffffffff1673ffffffffffffffffffffffffffffffffffffffff16815260200190815260200160002060008373ffffffffffffffffffffffffffffffffffffffff1673ffffffffffffffffffffffffffffffffffffffff16815260200190815260200160002060009054906101000a900460ff16905092915050565b600073ffffffffffffffffffffffffffffffffffffffff168573ffffffffffffffffffffffffffffffffffffffff1603610fe1576040517f08c379a0000000000000000000000000000000000000000000000000000000008152600401610fd8906123f0565b60405180910390fd5b3373ffffffffffffffffffffffffffffffffffffffff168673ffffffffffffffffffffffffffffffffffffffff1614806110a8575060011515600160008873ffffffffffffffffffffffffffffffffffffffff1673ffffffffffffffffffffffffffffffffffffffff16815260200190815260200160002060003373ffffffffffffffffffffffffffffffffffffffff1673ffffffffffffffffffffffffffffffffffffffff16815260200190815260200160002060009054906101000a900460ff161515145b6110e7576040517f08c379a00000000000000000000000000000000000000000000000000000000081526004016110de9061206c565b60405180910390fd5b8260008086815260200190815260200160002060008873ffffffffffffffffffffffffffffffffffffffff1673ffffffffffffffffffffffffffffffffffffffff1681526020019081526020016000205461114291906120bb565b60008086815260200190815260200160002060008873ffffffffffffffffffffffffffffffffffffffff1673ffffffffffffffffffffffffffffffffffffffff1681526020019081526020016000208190555060008085815260200190815260200160002060008673ffffffffffffffffffffffffffffffffffffffff1673ffffffffffffffffffffffffffffffffffffffff16815260200190815260200160002054836111f091906120ef565b60008086815260200190815260200160002060008773ffffffffffffffffffffffffffffffffffffffff1673ffffffffffffffffffffffffffffffffffffffff168152602001908152602001600020819055508473ffffffffffffffffffffffffffffffffffffffff168673ffffffffffffffffffffffffffffffffffffffff163373ffffffffffffffffffffffffffffffffffffffff167fc3d58168c5ae7397731d063d5bbf3d657854427343f4c083240f7aacaa2d0f6287876040516112b9929190611e2b565b60405180910390a46112e08573ffffffffffffffffffffffffffffffffffffffff1661146d565b156113f25763f23a6e6160e01b7bffffffffffffffffffffffffffffffffffffffffffffffffffffffff19168573ffffffffffffffffffffffffffffffffffffffff1663f23a6e613389888888886040518763ffffffff1660e01b815260040161134f96959493929190612410565b6020604051808303816000875af115801561136e573d6000803e3d6000fd5b505050506040513d601f19601f820116820180604052508101906113929190612289565b7bffffffffffffffffffffffffffffffffffffffffffffffffffffffff1916146113f1576040517f08c379a00000000000000000000000000000000000000000000000000000000081526004016113e890612328565b60405180910390fd5b5b505050505050565b63bc197c8160e01b81565b6000630e89341c60e01b7bffffffffffffffffffffffffffffffffffffffffffffffffffffffff1916827bffffffffffffffffffffffffffffffffffffffffffffffffffffffff19160361145c5760019050611468565b61146582611480565b90505b919050565b600080823b905060008111915050919050565b60006301ffc9a760e01b7bffffffffffffffffffffffffffffffffffffffffffffffffffffffff1916827bffffffffffffffffffffffffffffffffffffffffffffffffffffffff19161480611519575063d9b67a2660e01b7bffffffffffffffffffffffffffffffffffffffffffffffffffffffff1916827bffffffffffffffffffffffffffffffffffffffffffffffffffffffff1916145b15611527576001905061152c565b600090505b919050565b600080fd5b600080fd5b600073ffffffffffffffffffffffffffffffffffffffff82169050919050565b60006115668261153b565b9050919050565b6115768161155b565b811461158157600080fd5b50565b6000813590506115938161156d565b92915050565b6000819050919050565b6115ac81611599565b81146115b757600080fd5b50565b6000813590506115c9816115a3565b92915050565b600080604083850312156115e6576115e5611531565b5b60006115f485828601611584565b9250506020611605858286016115ba565b9150509250929050565b61161881611599565b82525050565b6000602082019050611633600083018461160f565b92915050565b600080fd5b600080fd5b600080fd5b60008083601f84011261165e5761165d611639565b5b8235905067ffffffffffffffff81111561167b5761167a61163e565b5b60208301915083600182028301111561169757611696611643565b5b9250929050565b6000806000604084860312156116b7576116b6611531565b5b60006116c5868287016115ba565b935050602084013567ffffffffffffffff8111156116e6576116e5611536565b5b6116f286828701611648565b92509250509250925092565b60007fffffffff0000000000000000000000000000000000000000000000000000000082169050919050565b611733816116fe565b811461173e57600080fd5b50565b6000813590506117508161172a565b92915050565b60006020828403121561176c5761176b611531565b5b600061177a84828501611741565b91505092915050565b60008115159050919050565b61179881611783565b82525050565b60006020820190506117b3600083018461178f565b92915050565b60008083601f8401126117cf576117ce611639565b5b8235905067ffffffffffffffff8111156117ec576117eb61163e565b5b60208301915083602082028301111561180857611807611643565b5b9250929050565b60008083601f84011261182557611824611639565b5b8235905067ffffffffffffffff8111156118425761184161163e565b5b60208301915083600182028301111561185e5761185d611643565b5b9250929050565b60008060008060008060008060a0898b03121561188557611884611531565b5b60006118938b828c01611584565b98505060206118a48b828c01611584565b975050604089013567ffffffffffffffff8111156118c5576118c4611536565b5b6118d18b828c016117b9565b9650965050606089013567ffffffffffffffff8111156118f4576118f3611536565b5b6119008b828c016117b9565b9450945050608089013567ffffffffffffffff81111561192357611922611536565b5b61192f8b828c0161180f565b92509250509295985092959890939650565b60008083601f84011261195757611956611639565b5b8235905067ffffffffffffffff8111156119745761197361163e565b5b6020830191508360208202830111156119905761198f611643565b5b9250929050565b600080600080604085870312156119b1576119b0611531565b5b600085013567ffffffffffffffff8111156119cf576119ce611536565b5b6119db87828801611941565b9450945050602085013567ffffffffffffffff8111156119fe576119fd611536565b5b611a0a878288016117b9565b925092505092959194509250565b600081519050919050565b600082825260208201905092915050565b6000819050602082019050919050565b611a4d81611599565b82525050565b6000611a5f8383611a44565b60208301905092915050565b6000602082019050919050565b6000611a8382611a18565b611a8d8185611a23565b9350611a9883611a34565b8060005b83811015611ac9578151611ab08882611a53565b9750611abb83611a6b565b925050600181019050611a9c565b5085935050505092915050565b60006020820190508181036000830152611af08184611a78565b905092915050565b600080600060408486031215611b1157611b10611531565b5b600084013567ffffffffffffffff811115611b2f57611b2e611536565b5b611b3b86828701611648565b93509350506020611b4e868287016115ba565b9150509250925092565b611b6181611783565b8114611b6c57600080fd5b50565b600081359050611b7e81611b58565b92915050565b60008060408385031215611b9b57611b9a611531565b5b6000611ba985828601611584565b9250506020611bba85828601611b6f565b9150509250929050565b600060208284031215611bda57611bd9611531565b5b6000611be8848285016115ba565b91505092915050565b611bfa8161155b565b82525050565b6000602082019050611c156000830184611bf1565b92915050565b600080600080600060608688031215611c3757611c36611531565b5b6000611c45888289016115ba565b955050602086013567ffffffffffffffff811115611c6657611c65611536565b5b611c7288828901611941565b9450945050604086013567ffffffffffffffff811115611c9557611c94611536565b5b611ca1888289016117b9565b92509250509295509295909350565b611cb9816116fe565b82525050565b6000602082019050611cd46000830184611cb0565b92915050565b60008060408385031215611cf157611cf0611531565b5b6000611cff85828601611584565b9250506020611d1085828601611584565b9150509250929050565b60008060008060008060a08789031215611d3757611d36611531565b5b6000611d4589828a01611584565b9650506020611d5689828a01611584565b9550506040611d6789828a016115ba565b9450506060611d7889828a016115ba565b935050608087013567ffffffffffffffff811115611d9957611d98611536565b5b611da589828a0161180f565b92509250509295509295509295565b7f4e487b7100000000000000000000000000000000000000000000000000000000600052601160045260246000fd5b6000611dee82611599565b91507fffffffffffffffffffffffffffffffffffffffffffffffffffffffffffffffff8203611e2057611e1f611db4565b5b600182019050919050565b6000604082019050611e40600083018561160f565b611e4d602083018461160f565b9392505050565b600082825260208201905092915050565b82818337600083830152505050565b6000601f19601f8301169050919050565b6000611e918385611e54565b9350611e9e838584611e65565b611ea783611e74565b840190509392505050565b60006020820190508181036000830152611ecd818486611e85565b90509392505050565b7f64657374696e6174696f6e2061646472657373206d757374206265206e6f6e2d60008201527f7a65726f2e000000000000000000000000000000000000000000000000000000602082015250565b6000611f32602583611e54565b9150611f3d82611ed6565b604082019050919050565b60006020820190508181036000830152611f6181611f25565b9050919050565b7f5f69647320616e64205f76616c756573206172726179206c656e676874206d7560008201527f7374206d617463682e0000000000000000000000000000000000000000000000602082015250565b6000611fc4602983611e54565b9150611fcf82611f68565b604082019050919050565b60006020820190508181036000830152611ff381611fb7565b9050919050565b7f4e656564206f70657261746f7220617070726f76616c20666f7220337264207060008201527f61727479207472616e73666572732e0000000000000000000000000000000000602082015250565b6000612056602f83611e54565b915061206182611ffa565b604082019050919050565b6000602082019050818103600083015261208581612049565b9050919050565b7f4e487b7100000000000000000000000000000000000000000000000000000000600052603260045260246000fd5b60006120c682611599565b91506120d183611599565b92508282039050818111156120e9576120e8611db4565b5b92915050565b60006120fa82611599565b915061210583611599565b925082820190508082111561211d5761211c611db4565b5b92915050565b600080fd5b82818337505050565b600061213d8385611a23565b93507f07ffffffffffffffffffffffffffffffffffffffffffffffffffffffffffffff8311156121705761216f612123565b5b602083029250612181838584612128565b82840190509392505050565b600060408201905081810360008301526121a8818688612131565b905081810360208301526121bd818486612131565b905095945050505050565b600082825260208201905092915050565b60006121e583856121c8565b93506121f2838584611e65565b6121fb83611e74565b840190509392505050565b600060a08201905061221b600083018b611bf1565b612228602083018a611bf1565b818103604083015261223b81888a612131565b90508181036060830152612250818688612131565b905081810360808301526122658184866121d9565b90509998505050505050505050565b6000815190506122838161172a565b92915050565b60006020828403121561229f5761229e611531565b5b60006122ad84828501612274565b91505092915050565b7f526563656976657220636f6e747261637420646964206e6f742061636365707460008201527f20746865207472616e736665722e000000000000000000000000000000000000602082015250565b6000612312602e83611e54565b915061231d826122b6565b604082019050919050565b6000602082019050818103600083015261234181612305565b9050919050565b7f4e487b7100000000000000000000000000000000000000000000000000000000600052604160045260246000fd5b60006020828403121561238d5761238c611531565b5b600061239b84828501611584565b91505092915050565b7f5f746f206d757374206265206e6f6e2d7a65726f2e0000000000000000000000600082015250565b60006123da601583611e54565b91506123e5826123a4565b602082019050919050565b60006020820190508181036000830152612409816123cd565b9050919050565b600060a0820190506124256000830189611bf1565b6124326020830188611bf1565b61243f604083018761160f565b61244c606083018661160f565b818103608083015261245f8184866121d9565b905097965050505050505056fea2646970667358221220c13946a296ea58e36d81543321b0391bd51fbb75864ee31e3b8aefe70b903f9264736f6c63430008110033",
  "immutableReferences": {},
  "source": "pragma solidity 0.8.17;\r\n\r\nimport \"./ERC1155.sol\";\r\nimport \"./ERC1155Mintable.sol\";\r\n\r\ncontract token is ERC1155, ERC1155Mintable {\r\nconstructor() {\r\n\r\n}\r\nfunction supportsInterface(bytes4 interfaceId) public pure virtual override(ERC1155, ERC1155Mintable) returns (bool) {\r\n        return super.supportsInterface(interfaceId);\r\n}\r\n}\r\n",
  "sourcePath": "C:\\Users\\HP Elitebook\\Downloads\\web3 project\\contracts\\token.sol",
  "compiler": {
    "name": "solc",
    "version": "0.8.17+commit.8df45f5f.Emscripten.clang"
  },
  "schemaVersion": "3.4.3",
  "updatedAt": "2022-11-08T17:39:28.242Z",
  "networkType": "ethereum",
  "devdoc": {
    "kind": "dev",
    "methods": {
      "balanceOf(address,uint256)": {
        "params": {
          "_id": "ID of the Token",
          "_owner": "The address of the token holder"
        },
        "returns": {
          "_0": "The _owner's balance of the Token type requested"
        }
      },
      "balanceOfBatch(address[],uint256[])": {
        "params": {
          "_ids": "ID of the Tokens",
          "_owners": "The addresses of the token holders"
        },
        "returns": {
          "_0": "The _owner's balance of the Token types requested"
        }
      },
      "isApprovedForAll(address,address)": {
        "params": {
          "_operator": "Address of authorized operator",
          "_owner": "The owner of the Tokens"
        },
        "returns": {
          "_0": "True if the operator is approved, false if not"
        }
      },
      "safeBatchTransferFrom(address,address,uint256[],uint256[],bytes)": {
        "details": "MUST emit TransferBatch event on success. Caller must be approved to manage the _from account's tokens (see isApprovedForAll). MUST Throw if `_to` is the zero address. MUST Throw if any of the `_ids` is not a valid token ID. MUST Throw on any other error. When transfer is complete, this function MUST check if `_to` is a smart contract (code size > 0). If so, it MUST call `onERC1155BatchReceived` on `_to` and revert if the return value is not `bytes4(keccak256(\"onERC1155BatchReceived(address,address,uint256[],uint256[],bytes)\"))`.",
        "params": {
          "_data": "Additional data with no specified format, sent in call to `_to`",
          "_from": "Source address",
          "_ids": "IDs of each token type",
          "_to": "Target address",
          "_values": "Transfer amounts per token type"
        }
      },
      "safeTransferFrom(address,address,uint256,uint256,bytes)": {
        "details": "MUST emit TransferSingle event on success. Caller must be approved to manage the _from account's tokens (see isApprovedForAll). MUST Throw if `_to` is the zero address. MUST Throw if `_id` is not a valid token ID. MUST Throw on any other error. When transfer is complete, this function MUST check if `_to` is a smart contract (code size > 0). If so, it MUST call `onERC1155Received` on `_to` and revert if the return value is not `bytes4(keccak256(\"onERC1155Received(address,address,uint256,uint256,bytes)\"))`.",
        "params": {
          "_data": "Additional data with no specified format, sent in call to `_to`",
          "_from": "Source addresses",
          "_id": "ID of the token type",
          "_to": "Target addresses",
          "_value": "Transfer amount"
        }
      },
      "setApprovalForAll(address,bool)": {
        "details": "MUST emit the ApprovalForAll event on success.",
        "params": {
          "_approved": "True if the operator is approved, false to revoke approval",
          "_operator": "Address to add to the set of authorized operators"
        }
      }
    },
    "version": 1
  },
  "userdoc": {
    "kind": "user",
    "methods": {
      "balanceOf(address,uint256)": {
        "notice": "Get the balance of an account's Tokens."
      },
      "balanceOfBatch(address[],uint256[])": {
        "notice": "Get the balance of multiple account/token pairs"
      },
      "isApprovedForAll(address,address)": {
        "notice": "Queries the approval status of an operator for a given owner."
      },
      "safeBatchTransferFrom(address,address,uint256[],uint256[],bytes)": {
        "notice": "Send multiple types of Tokens from a 3rd party in one transfer (with safety call)."
      },
      "safeTransferFrom(address,address,uint256,uint256,bytes)": {
        "notice": "Transfers value amount of an _id from the _from address to the _to addresses specified. Each parameter array should be the same length, with each index correlating."
      },
      "setApprovalForAll(address,bool)": {
        "notice": "Enable or disable approval for a third party (\"operator\") to manage all of the caller's tokens."
      }
    },
    "version": 1
  }
}